:020000040800F2
:1000000000C00020C5260008851B00088D1B0008C5
:10001000951B00089D1B0008A51B000800000000A0
:10002000000000000000000000000000AD1B000800
:10003000B91B000800000000C51B0008D11B000808
:100040000D2700080D2700080D2700080D270008C0
:100050000D2700080D2700080D2700080D270008B0
:100060000D2700080D2700080D270008DD1B0008DC
:100070000D2700080D2700080D2700080D27000890
:100080000D2700080D2700080D2700080D27000880
:10009000F11B0008051C0008191C00080D270008AA
:1000A0000D2700080D2700080D2700080D27000860
:1000B0000D2700080D2700080D2700080D27000850
:1000C0000D2700080D2700080D2700080D27000840
:1000D0000D2700080D2700080D2700080D27000830
:1000E0000D2700080D2700080D2700080D27000820
:1000F0000D2700080D2700080D2700080D27000810
:100100000D2700080D2700082D1C00080D270008EA
:100110000D270008411C00080D2700080D270008C6
:100120000D2700080D2700080D2700080D270008DF
:1001300000000000000000000000000000000000BF
:1001400000000000000000000000000000000000AF
:10015000000000000000000000000000000000009F
:10016000000000000000000000000000000000008F
:10017000000000000000000000000000000000007F
:10018000000000000000000000000000000000006F
:10019000000000000000000000000000000000005F
:1001A000000000000000000000000000000000004F
:1001B000000000000000000000000000000000003F
:1001C000000000000000000000000000000000002F
:1001D000000000000000000000000000000000001F
:0401E0005FF8E0F1F3
:1001E80010B5054C237833B9044B13B10448AFF369
:1001F80000800123237010BD40080020000000008B
:100208004CDE000808B5034B1BB103490348AFF3A4
:10021800008008BD00000000440800204CDE0008F3
:1002280010F8012B11F8013B012A28BF9A42F7D098
:10023800D01A7047034613F8012B002AFBD1181A6D
:100248000138704781F0004102E000BF83F00043AD
:1002580030B54FEA41044FEA430594EA050F08BF59
:1002680090EA020F1FBF54EA000C55EA020C7FEA1D
:10027800645C7FEA655C00F0E2804FEA5454D4EB9A
:100288005555B8BF6D420CDD2C4480EA020281EA64
:10029800030382EA000083EA010180EA020281EA9C
:1002A8000303362D88BF30BD11F0004F4FEA0131EE
:1002B8004FF4801C4CEA113102D0404261EB4101FD
:1002C80013F0004F4FEA03334CEA133302D0524283
:1002D80063EB430394EA050F00F0A780A4F101043F
:1002E800D5F1200E0DDB02FA0EFC22FA05F2801879
:1002F80041F1000103FA0EF2801843FA05F359415F
:100308000EE0A5F120050EF1200E012A03FA0EFCDD
:1003180028BF4CF0020C43FA05F3C01851EBE37107
:1003280001F0004507D54FF0000EDCF1000C7EEB24
:1003380000006EEB0101B1F5801F1BD3B1F5001F62
:100348000CD349085FEA30004FEA3C0C04F1010481
:100358004FEA445212F5800F80F09A80BCF1004FAA
:1003680008BF5FEA500C50F1000041EB045141EA2C
:10037800050130BD5FEA4C0C404141EB0101013CF5
:1003880028BFB1F5801FE9D291F0000F04BF0146E4
:100398000020B1FA81F308BF2033A3F10B03B3F1B6
:1003A80020020CDA0C3208DD02F1140CC2F10C0246
:1003B80001FA0CF021FA02F10CE002F11402D8BFA4
:1003C800C2F1200C01FA02F120FA0CFCDCBF41EA70
:1003D8000C019040E41AA2BF01EB0451294330BD3F
:1003E8006FEA04041F3C1CDA0C340EDC04F114041C
:1003F800C4F1200220FA04F001FA02F340EA0300F3
:1004080021FA04F345EA030130BDC4F10C04C4F138
:10041800200220FA02F001FA04F340EA0300294618
:1004280030BD21FA04F0294630BD94F0000F83F462
:10043800801306BF81F480110134013D4EE77FEA45
:10044800645C18BF7FEA655C29D094EA050F08BF91
:1004580090EA020F05D054EA000C04BF1946104672
:1004680030BD91EA030F1EBF0021002030BD5FEAB6
:10047800545C05D14000494128BF41F0004130BDDE
:1004880014F580043CBF01F5801130BD01F0004532
:1004980045F0FE4141F470014FF0000030BD7FEAA5
:1004A800645C1ABF194610467FEA655C1CBF0B46A0
:1004B800024650EA013406BF52EA033591EA030FB7
:1004C80041F4002130BD00BF90F0000F04BF0021AF
:1004D800704730B54FF4806404F132044FF00005E2
:1004E8004FF0000150E700BF90F0000F04BF00215B
:1004F800704730B54FF4806404F1320410F00045C1
:1005080048BF40424FF000013EE700BF42004FEABB
:10051800E2014FEA31014FEA02701FBF12F07F4338
:1005280093F07F4F81F06051704732F07F4208BFEF
:10053800704793F07F4F04BF41F40021704730B5F6
:100548004FF4607401F0004521F000411CE700BF42
:1005580050EA010208BF704730B54FF000050AE0C5
:1005680050EA010208BF704730B511F0004502D5C6
:10057800404261EB41014FF4806404F132045FEAC8
:10058800915C3FF4D8AE4FF003025FEADC0C18BF71
:1005980003325FEADC0C18BF033202EBDC02C2F163
:1005A800200300FA03FC20FA02F001FA03FE40EAF5
:1005B8000E0021FA02F11444BDE600BF70B54FF0F9
:1005C800FF0C4CF4E06C1CEA11541DBF1CEA1355D7
:1005D80094EA0C0F95EA0C0F00F0DEF82C4481EA3F
:1005E800030621EA4C5123EA4C5350EA013518BF5F
:1005F80052EA033541F4801143F4801338D0A0FB4C
:1006080002CE4FF00005E1FB02E506F00042E0FBF8
:1006180003E54FF00006E1FB03569CF0000F18BFFE
:100628004EF0010EA4F1FF04B6F5007F64F54074A6
:1006380004D25FEA4E0E6D4146EB060642EAC62139
:1006480041EA55514FEAC52040EA5E504FEACE2EA6
:10065800B4F1FD0C88BFBCF5E06F1ED8BEF1004FA9
:1006680008BF5FEA500E50F1000041EB045170BD25
:1006780006F0004646EA010140EA020081EA030169
:10068800B4EB5C04C2BFD4EB0C0541EA045170BD65
:1006980041F480114FF0000E013C00F3AB8014F1DF
:1006A800360FDEBF002001F0004170BDC4F1000428
:1006B800203C35DA0C341BDC04F11404C4F12005A9
:1006C80000FA05F320FA04F001FA05F240EA020004
:1006D80001F0004221F0004110EBD37021FA04F63A
:1006E80042EB06015EEA430E08BF20EAD37070BDF4
:1006F800C4F10C04C4F1200500FA04F320FA05F053
:1007080001FA04F240EA020001F0004110EBD37054
:1007180041F100015EEA430E08BF20EAD37070BDC4
:10072800C4F1200500FA05F24EEA020E20FA04F39D
:1007380001FA05F243EA020321FA04F001F000414C
:1007480021FA04F220EA020000EBD3705EEA430EBD
:1007580008BF20EAD37070BD94F0000F0FD101F0EC
:100768000046400041EB010111F4801F08BF013C25
:10077800F7D041EA060195F0000F18BF704703F063
:100788000046520043EB030313F4801F08BF013DEA
:10079800F7D043EA0603704794EA0C0F0CEA1355A6
:1007A80018BF95EA0C0F0CD050EA410618BF52EA60
:1007B8004306D1D181EA030101F000414FF0000066
:1007C80070BD50EA410606BF1046194652EA430674
:1007D80019D094EA0C0F02D150EA013613D195EAE8
:1007E8000C0F05D152EA03361CBF104619460AD130
:1007F80081EA030101F0004141F0FE4141F470013A
:100808004FF0000070BD41F0FE4141F4780170BD29
:1008180070B54FF0FF0C4CF4E06C1CEA11541DBF8E
:100828001CEA135594EA0C0F95EA0C0F00F0A7F890
:10083800A4EB050481EA030E52EA03354FEA0131BD
:1008480000F088804FEA03334FF0805545EA1313D0
:1008580043EA12634FEA022245EA111545EA106598
:100868004FEA00260EF000419D4208BF964244F12F
:10087800FD0404F5407402D25B084FEA3202B61A4E
:1008880065EB03055B084FEA32024FF480104FF422
:10089800002CB6EB020E75EB030E22BFB61A754696
:1008A80040EA0C005B084FEA3202B6EB020E75EB29
:1008B800030E22BFB61A754640EA5C005B084FEA91
:1008C8003202B6EB020E75EB030E22BFB61A75465E
:1008D80040EA9C005B084FEA3202B6EB020E75EB69
:1008E800030E22BFB61A754640EADC0055EA060E2A
:1008F80018D04FEA051545EA16754FEA06164FEA6D
:10090800C30343EA52734FEAC2025FEA1C1CC0D118
:1009180011F4801F0BD141EA00014FF000004FF0A5
:10092800004CB6E711F4801F04BF01430020B4F166
:10093800FD0C88BFBCF5E06F3FF6AFAEB5EB030C1E
:1009480004BFB6EB020C5FEA500C50F1000041EB1B
:10095800045170BD0EF0004E4EEA113114EB5C04E8
:10096800C2BFD4EB0C0541EA045170BD41F48011BB
:100978004FF0000E013C90E645EA060E8DE60CEAC3
:10098800135594EA0C0F08BF95EA0C0F3FF43BAFE0
:1009980094EA0C0F0AD150EA01347FF434AF95EA97
:1009A8000C0F7FF425AF104619462CE795EA0C0F7B
:1009B80006D152EA03353FF4FDAE1046194622E748
:1009C80050EA410618BF52EA43067FF4C5AE50EA22
:1009D80041047FF40DAF52EA43057FF4EBAE12E712
:1009E8004FF0FF3C06E000BF4FF0010C02E000BFF3
:1009F8004FF0010C4DF804CD4FEA410C7FEA6C5CD6
:100A08004FEA430C18BF7FEA6C5C1BD001B050EA78
:100A1800410C0CBF52EA430C91EA030F02BF90EA63
:100A2800020F0020704710F1000F91EA030F58BF22
:100A3800994208BF90422CBFD8176FEAE37040F084
:100A4800010070474FEA410C7FEA6C5C02D150EA22
:100A5800013C07D14FEA430C7FEA6C5CD6D152EADD
:100A6800033CD3D05DF8040B704700BF84461046A2
:100A780062468C461946634600E000BF01B5FFF7A1
:100A8800B7FF002848BF10F1000F01BD4DF808ED71
:100A9800FFF7F4FF0CBF012000205DF808FB00BF42
:100AA8004DF808EDFFF7EAFF34BF012000205DF89C
:100AB80008FB00BF4DF808EDFFF7E0FF94BF0120E9
:100AC80000205DF808FB00BF4DF808EDFFF7CEFFEA
:100AD80094BF012000205DF808FB00BF4DF808ED29
:100AE800FFF7C4FF34BF012000205DF808FB00BFFA
:100AF8004FEA410C7FEA6C5C02D150EA013C0AD112
:100B08004FEA430C7FEA6C5C02D152EA033C02D103
:100B18004FF0000070474FF0010070474FEA410264
:100B280012F5001215D211D56FF47873B3EB625237
:100B380012D94FEAC12343F0004343EA505311F05E
:100B4800004F23FA02F018BF404270474FF00000F0
:100B5800704750EA013005D111F0004008BF6FF02E
:100B6800004070474FF00000704700BF4FEA410255
:100B7800B2F1E04324BFB3F5001CDCF1FE5C0DD9F3
:100B880001F0004C4FEAC0024CEA5070B2F1004F3D
:100B980040EB830008BF20F00100704711F0804F40
:100BA80021D113F13872BCBF01F00040704741F405
:100BB80080114FEA5252C2F11802C2F1200C10FA09
:100BC8000CF320FA02F018BF40F001004FEAC123ED
:100BD8004FEAD32303FA0CFC40EA0C0023FA02F391
:100BE8004FEA4303CCE77FEA625307D150EA013367
:100BF8001EBF4FF0FE4040F44000704701F0004037
:100C080040F0FE4040F40000704700BF80F0004014
:100C180002E000BF81F0004142001FBF5FEA4103CC
:100C280092EA030F7FEA226C7FEA236C6AD04FEACC
:100C38001262D2EB1363C1BFD21841404840414011
:100C4800B8BF5B42192B88BF704710F0004F40F4C3
:100C5800000020F07F4018BF404211F0004F41F4DF
:100C6800000121F07F4118BF494292EA030F3FD0AB
:100C7800A2F1010241FA03FC10EB0C00C3F12003BE
:100C880001FA03F100F0004302D5494260EB40004D
:100C9800B0F5000F13D3B0F1807F06D340084FEAB8
:100CA800310102F10102FE2A51D2B1F1004F40EBAD
:100CB800C25008BF20F0010040EA03007047490015
:100CC80040EB0000013A28BFB0F5000FEDD2B0FAB2
:100CD80080FCACF1080CB2EB0C0200FA0CF0AABFD5
:100CE80000EBC25052421843BCBFD0401843704773
:100CF80092F0000F81F4000106BF80F40000013279
:100D0800013BB5E74FEA41037FEA226C18BF7FEA4F
:100D1800236C21D092EA030F04D092F0000F08BF91
:100D28000846704790EA010F1CBF0020704712F078
:100D38007F4F04D1400028BF40F00040704712F1B7
:100D480000723CBF00F50000704700F0004343F01C
:100D5800FE4040F4000070477FEA226216BF084652
:100D68007FEA23630146420206BF5FEA412390EA15
:100D7800010F40F4800070474FF0000304E000BF0B
:100D880010F0004348BF40425FEA000C08BF7047BC
:100D980043F0964301464FF000001CE050EA010280
:100DA80008BF70474FF000030AE000BF50EA010295
:100DB80008BF704711F0004302D5404261EB410182
:100DC8005FEA010C02BF84460146002043F0B643A7
:100DD80008BFA3F18053A3F50003BCFA8CF2083ACC
:100DE800A3EBC25310DB01FA02FC634400FA02FCD5
:100DF800C2F12002BCF1004F20FA02F243EB0200DC
:100E080008BF20F00100704702F1200201FA02FC3D
:100E1800C2F1200250EA4C0021FA02F243EB020030
:100E280008BF20EADC7070474FF0FF0C1CEAD05274
:100E38001EBF1CEAD15392EA0C0F93EA0C0F6FD035
:100E48001A4480EA010C400218BF5FEA41211ED013
:100E58004FF0006343EA501043EA5111A0FB0131FF
:100E68000CF00040B1F5000F3EBF490041EAD371D4
:100E78005B0040EA010062F17F02FD2A1DD8B3F150
:100E8800004F40EBC25008BF20F00100704790F0BF
:100E9800000F0CF0004C08BF49024CEA502040EA11
:100EA80051207F3AC2BFD2F1FF0340EAC2507047D7
:100EB80040F400004FF00003013A5DDC12F1190F15
:100EC800DCBF00F000407047C2F10002410021FA87
:100ED80002F1C2F1200200FA02FC5FEA310040F19F
:100EE800000053EA4C0308BF20EADC70704792F018
:100EF800000F00F0004C02BF400010F4000F013A50
:100F0800F9D040EA0C0093F0000F01F0004C02BF4A
:100F1800490011F4000F013BF9D041EA0C018FE7B9
:100F28000CEAD15392EA0C0F18BF93EA0C0F0AD0BF
:100F380030F0004C18BF31F0004CD8D180EA0100E5
:100F480000F00040704790F0000F17BF90F0004F7E
:100F5800084691F0000F91F0004F14D092EA0C0F60
:100F680001D142020FD193EA0C0F03D14B0218BFF3
:100F7800084608D180EA010000F0004040F0FE4039
:100F880040F40000704740F0FE4040F440007047D5
:100F98004FF0FF0C1CEAD0521EBF1CEAD15392EA54
:100FA8000C0F93EA0C0F69D0A2EB030280EA010C44
:100FB80049024FEA402037D04FF0805343EA1111DD
:100FC80043EA10130CF000408B4238BF5B0042F13B
:100FD8007D024FF4000C8B4224BF5B1A40EA0C00E0
:100FE800B3EB510F24BFA3EB510340EA5C00B3EB12
:100FF800910F24BFA3EB910340EA9C00B3EBD10F00
:1010080024BFA3EBD10340EADC001B0118BF5FEA51
:101018001C1CE0D1FD2A3FF650AF8B4240EBC2507A
:1010280008BF20F0010070470CF0004C4CEA50203B
:101038007F32C2BFD2F1FF0340EAC250704740F48A
:1010480000004FF00003013A37E792F0000F00F07C
:10105800004C02BF400010F4000F013AF9D040EAFA
:101068000C0093F0000F01F0004C02BF490011F48E
:10107800000F013BF9D041EA0C0195E70CEAD15386
:1010880092EA0C0F08D142027FF47DAF93EA0C0F6D
:101098007FF470AF084676E793EA0C0F04D14B0251
:1010A8003FF44CAF08466EE730F0004C18BF31F003
:1010B800004CCAD130F000427FF45CAF31F00043FD
:1010C8007FF43CAF5FE700BF4FF0FF3C06E000BF96
:1010D8004FF0010C02E000BF4FF0010C4DF804CDB9
:1010E8004FEA40024FEA41037FEA226C18BF7FEAC9
:1010F800236C11D001B052EA530C18BF90EA010FCB
:1011080058BFB2EB030088BFC81738BF6FEAE17059
:1011180018BF40F0010070477FEA226C02D15FEAF5
:10112800402C05D17FEA236CE4D15FEA412CE1D061
:101138005DF8040B704700BF844608466146FFE728
:101148000FB5FFF7C9FF002848BF10F1000F0FBD0A
:101158004DF808EDFFF7F4FF0CBF012000205DF803
:1011680008FB00BF4DF808EDFFF7EAFF34BF012088
:1011780000205DF808FB00BF4DF808EDFFF7E0FF21
:1011880094BF012000205DF808FB00BF4DF808ED72
:10119800FFF7D2FF94BF012000205DF808FB00BFD5
:1011A8004DF808EDFFF7C8FF34BF012000205DF8B7
:1011B80008FB00BF42000ED2B2F1FE4F0BD34FF036
:1011C8009E03B3EB126209D44FEA002343F00043B5
:1011D80023FA02F070474FF00000704712F1610FD8
:1011E80001D1420202D14FF0FF3070474FF00000AA
:1011F800704700BF53B94AB9002908BF00281CBF6F
:101208004FF0FF314FF0FF3000F08CB9ADF1080C12
:101218006DE904CE00F006F8DDF804E0DDE902230C
:1012280004B070472DE9F047089D8E46044688466D
:10123800002B4AD18A42174662D9B2FA82F64EB1D9
:10124800C6F1200301FA06F820FA03F3B74043EA8F
:101258000808B4404FEA174EB8FBFEF11FFA87FCA6
:101268000EFB118801FB0CF2230C43EA08439A4257
:1012780009D9FB1801F1FF3080F0EB809A4240F267
:10128800E88002393B449A1AB2FBFEF00EFB1022AA
:1012980000FB0CFCA3B243EA02439C4509D9FB18A6
:1012A80000F1FF3280F0D7809C4540F2D4803B4467
:1012B800023840EA01400021A3EB0C031DB10022D3
:1012C800F340C5E90032BDE8F0878B4205D90DB17E
:1012D800C5E9000100210846F5E7B3FA83F10029C2
:1012E80046D1734502D3824200F20881841A6EEB1C
:1012F800030201209046002DE5D0C5E90048E2E749
:10130800002A00F09180B2FA82F6002E40F0A58003
:101318008A1A0121030C4FEA174E80B2BCB2B2FB05
:10132800FEFC0EFB1C2243EA024304FB0CF29A4229
:1013380007D9FB180CF1FF3802D29A4200F2E38079
:10134800C4469B1AB3FBFEF20EFB123302FB04F4F5
:1013580040EA03439C4207D9FB1802F1FF3002D24E
:101368009C4200F2CD8002461B1B42EA0C40A5E7D6
:10137800C1F120068B4022FA06F71F432EFA06FA1F
:101388004FEA1749BAFBF9F80EFA01FE20FA06F3FC
:1013980009FB18AA1FFA87FC43EA0E0300FA01FEAC
:1013A80008FB0CF01C0C44EA0A44A04202FA01F2C1
:1013B8000AD93C1908F1FF3A80F09E80A04240F219
:1013C8009B80A8F102083C44241A98B2B4FBF9F3B4
:1013D80009FB134403FB0CFC40EA0444A44509D967
:1013E8003C1903F1FF3080F08580A44540F28280EB
:1013F800023B3C4443EA0840A4EB0C04A0FB028CEB
:1014080064454346E14664D361D05DB1BEEB030257
:1014180064EB090404FA06F622FA01F31E43CC40F1
:10142800C5E9006400214EE7B1FBF2FC010C41EA7A
:101438000E4180B240EA01423B46B1FBF7F1384623
:101448003C46B846BE462026A2EB080241EA0C41BB
:1014580065E7014617E710462BE7C6F120012EFA8B
:1014680001FCB7400EFA06FE20FA01F141EA0E012E
:101478004FEA174EBCFBFEF8BCB20EFB18CC08FBBB
:1014880004F90A0C42EA0C42B04091454FEA104375
:1014980080B23ED9BA1808F1FF3C01D291451FD855
:1014A800A2EB0902B2FBFEF909FB04F80EFB192AAC
:1014B8008AB242EA0A42424529D2BA1809F1FF31F2
:1014C800C2D24245C0D2A9F102013A44BCE7C6459E
:1014D8009BD2B8EB02036CEB070C0138E14694E7AA
:1014E800A7EB09094A44B2FBFEF9A8F1020C09FB73
:1014F80004F8DBE703467DE7D04665E70846FAE6E9
:101508003B44023A30E7ACF1020C3B4419E7494648
:101518009AE7A2EB0902B2FBFEF9C44609FB04F8FC
:10152800C4E700BF704700BF80B584B000AF3B1D63
:1015380000221A605A609A603C4B3D4A1A603B4B45
:101548004FF480729A60394B01221A73374B00228C
:101558001A75364B4FF46022DA61344B00225A6018
:10156800324B06221A61314801F030F90346002B4C
:1015780001D000F0CBFA03237B600123BB6000237A
:10158800FB603B1D1946294801F046FB0346002B2A
:1015980001D000F0BBFA05237B600223BB603B1D32
:1015A8001946224801F038FB0346002B01D000F011
:1015B800ADFA06237B600323BB603B1D19461B481D
:1015C80001F02AFB0346002B01D000F09FFA0A2302
:1015D8007B600423BB603B1D1946144801F01CFBCB
:1015E8000346002B01D000F091FA0C237B60052301
:1015F800BB603B1D19460D4801F00EFB0346002B4E
:1016080001D000F083FA0E237B600623BB603B1DEC
:101618001946064801F000FB0346002B01D000F0F4
:1016280075FA00BF1037BD4680BD00BF5C080020BA
:101638000024014080B58AB000AF786007F1180334
:1016480000221A605A609A60DA607B681B683E4A1A
:10165800934275D13D4B9B693C4A43F400739361B7
:101668003A4B9B6903F400737B617B69374B9B6939
:10167800364A43F010039361344B9B6903F010031F
:101688003B613B69314B9B69304A43F004039361EA
:101698002E4B9B6903F00403FB60FB682B4B9B6993
:1016A8002A4A43F008039361284B9B6903F0080317
:1016B800BB60BB683723BB610323FB6107F11803D9
:1016C8001946234803F0BCF8FC23BB610323FB61E4
:1016D80007F1180319461F4803F0B2F80123BB614C
:1016E8000323FB6107F1180319461B4803F0A8F808
:1016F8001A4B1B4A1A60194B00225A60174B0022DA
:101708009A60164B8022DA60144B4FF480721A618B
:10171800124B4FF480625A61104B00229A610F4BB2
:101728000022DA610D4802F007FC0346002B01D0C5
:1017380000F0ECF97B68094A1A62084A7B68536230
:1017480000BF2837BD4680BD00240140001002407C
:101758000010014000080140000C01408C080020E6
:101768000800024080B500AF184B194A1A60174BA1
:1017780004225A60154B00229A60144B4FF0807275
:10178800DA60124B4FF480221A61104B4FF40012AA
:101798005A610E4B00221A760C4B01225A760B4BDB
:1017A80001229A76094B0022DA76084B00221A7732
:1017B800064B00225A77054801F027FC0346002B08
:1017C80001D000F0A3F900BF80BD00BFD008002001
:1017D8000064004080B588B000AF786007F110035E
:1017E80000221A605A609A60DA607B681B68284A8F
:1017F800934249D1274BDB69264A43F00073D361F2
:10180800244BDB6903F00073FB60FB68214B9B6989
:10181800204A43F0040393611E4B9B6903F00403C1
:10182800BB60BB684FF400633B6100237B6100230E
:10183800BB6107F110031946174803F001F84FF48C
:1018480080533B6102237B610323FB6107F1100393
:101858001946114802F0F4FF00220421142002F076
:1018680034FB142002F04DFB00220321152002F066
:101878002CFB152002F045FB00220321162002F064
:1018880024FB162002F03DFB00BF2037BD4680BD7B
:1018980000640040001002400008014080B582B09A
:1018A80000AF0C4B5B690B4A43F001035361094BD2
:1018B8005B6903F001037B607B68002200210B2039
:1018C80002F003FB0B2002F01CFB00BF0837BD46EB
:1018D80080BD00BF0010024080B588B000AF07F19E
:1018E800100300221A605A609A60DA60444B9B69C0
:1018F800434A43F020039361414B9B6903F0200363
:10190800FB60FB683E4B9B693D4A43F010039361C3
:101918003B4B9B6903F01003BB60BB68384B9B696A
:10192800374A43F004039361354B9B6903F0040382
:101938007B607B68324B9B69314A43F008039361B3
:101948002F4B9B6903F008033B603B68002208218A
:101958002C4803F020F9002203212B4803F01BF93F
:1019680000224FF47041294803F015F908233B6120
:1019780001237B610023BB610223FB6107F1100394
:101988001946204802F05CFF03233B6101237B6179
:101998000023BB610223FB6107F1100319461A48B3
:1019A80002F04EFF40F236433B61194B7B61002346
:1019B800BB6107F110031946144802F041FF4FF4C8
:1019C80070433B6101237B610023BB610223FB6100
:1019D80007F1100319460D4802F032FF4FF4004397
:1019E8003B610B4B7B610023BB6107F11003194678
:1019F800054802F025FF00BF2037BD4680BD00BF67
:101A0800001002400010014000080140000C014095
:101A18000000111080B500AF00F076FE00F019F854
:101A2800FFF75AFFFFF73AFFFFF77EFD00F0D6F900
:101A380000F08CFA00F00AFB00F09EFB00F0B2FD0B
:101A4800FFF790FE00F02EFC06F034FB06F092FB48
:101A5800FCE780B596B000AF07F1300328220021DB
:101A6800184609F0D3FE07F11C0300221A605A60D9
:101A78009A60DA601A613B1D00221A605A609A6007
:101A8800DA601A615A6101233B634FF480337B6348
:101A98000023BB6301233B640223FB644FF48033C0
:101AA8003B654FF4E0137B6507F13003184603F0FC
:101AB8008BF80346002B01D000F028F80F23FB61B8
:101AC80002233B6200237B624FF48063BB620023E6
:101AD800FB6207F11C030221184603F0F7FA0346DC
:101AE800002B01D000F012F802237B604FF4004372
:101AF800FB603B1D184603F077FC0346002B01D022
:101B080000F004F800BF5837BD4680BD80B400AF70
:101B180072B600BF00BFFDE780B485B000AF154BBB
:101B28009B69144A43F001039361124B9B6903F0CC
:101B38000103BB60BB680F4BDB690E4A43F080535F
:101B4800D3610C4BDB6903F080537B607B680A4BE5
:101B58005B68FB60FB6823F0E063FB60FB6843F0B5
:101B68000073FB60044AFB68536000BF1437BD462E
:101B780080BC7047001002400000014080B400AFF4
:101B880000BFFDE780B400AF00BFFDE780B400AF41
:101B980000BFFDE780B400AF00BFFDE780B400AF31
:101BA80000BFFDE780B400AF00BFBD4680BC7047F2
:101BB80080B400AF00BFBD4680BC704780B400AFA2
:101BC80000BFBD4680BC704780B500AF00F0E2FDA5
:101BD80000BF80BD80B500AF024802F0C7FB00BF60
:101BE80080BD00BF8C08002080B500AF024801F01E
:101BF80084FE00BF80BD00BFD008002080B500AFC4
:101C0800024801F07AFE00BF80BD00BFD008002066
:101C180080B500AF024801F070FE00BF80BD00BF74
:101C2800D008002080B500AF024804F039F900BFA1
:101C380080BD00BF1C0A002080B500AF024805F037
:101C48000FF900BF80BD00BF640A002080B400AF58
:101C580001231846BD4680BC704780B582B000AFEE
:101C68007860396009F080FE034616221A604FF04A
:101C7800FF3318460837BD4680BD80B582B000AF37
:101C880078604FF0FF317868FFF7E7FF00BFFDE7A6
:101C980080B586B000AFF860B9607A6000237B61D8
:101CA8000AE0AFF300800146BB685A1CBA60CAB2AA
:101CB8001A707B6901337B617A697B689A42F0DB31
:101CC8007B6818461837BD4680BD80B586B000AF22
:101CD800F860B9607A6000237B6109E0BB685A1C30
:101CE800BA601B781846AFF300807B6901337B61CB
:101CF8007A697B689A42F1DB7B6818461837BD46DB
:101D080080BD80B483B000AF78604FF0FF331846D1
:101D18000C37BD4680BC704780B483B000AF786094
:101D280039603B684FF400525A60002318460C375C
:101D3800BD4680BC704780B483B000AF7860012393
:101D480018460C37BD4680BC704780B485B000AFDC
:101D5800F860B9607A60002318461437BD4680BC25
:101D68007047000080B586B000AF7860144A154B04
:101D7800D31A7B617B693B61134B1B68002B02D133
:101D8800114B124A1A60104B1A687B6813443A695F
:101D98009A4207D209F0E8FD03460C221A604FF078
:101DA800FF3309E0084B1B68FB60074B1A687B6828
:101DB8001344054A1360FB6818461837BD4680BDB2
:101DC80000C0002000040000F8080020180E0020C1
:101DD80080B400AF00BFBD4680BC704780B596B0E8
:101DE80000AF07F1480300221A605A609A60DA606F
:101DF80007F1400300221A605A6007F12403002209
:101E08001A605A609A60DA601A615A619A613B1DD9
:101E180020220021184609F0F9FC4A4B4A4A1A6068
:101E2800484B47225A60474B00229A60454B632231
:101E3800DA60444B00221A61424B00225A61414B3E
:101E480000229A613F4803F085FB0346002B01D02E
:101E5800FFF75CFE4FF48053BB6407F14803194653
:101E6800384804F0CFF90346002B01D0FFF74EFEA7
:101E7800344803F0CBFC0346002B01D0FFF746FEA5
:101E880000233B6400237B6407F1400319462D4877
:101E980004F086FD0346002B01D0FFF737FE6023D0
:101EA8007B620023BB620023FB6200233B630023A9
:101EB8007B630023BB630023FB6307F12403002239
:101EC8001946204804F0DCF80346002B01D0FFF740
:101ED8001DFE07F12403042219461A4804F0D0F81D
:101EE8000346002B01D0FFF711FE07F12403082257
:101EF8001946144804F0C4F80346002B01D0FFF734
:101F080005FE00237B600023BB600023FB600023E9
:101F18003B6100237B614FF40053BB6100233B62AC
:101F28003B1D1946074804F0A7FD0346002B01D0C6
:101F3800FFF7ECFD034800F077FA00BF5837BD46BD
:101F480080BD00BFFC080020002C014080B58EB089
:101F580000AF07F1280300221A605A609A60DA601D
:101F680007F1200300221A605A603B1D00221A6004
:101F78005A609A60DA601A615A619A61324B4FF07E
:101F880080421A60304B00225A602F4B00229A6020
:101F98002D4B5922DA602C4B00221A612A4B002261
:101FA8009A61294803F0D6FA0346002B01D0FFF7BF
:101FB800ADFD4FF48053BB6207F128031946224850
:101FC80004F020F90346002B01D0FFF79FFD1E48BF
:101FD80003F01CFC0346002B01D0FFF797FD0023FC
:101FE8003B6200237B6207F120031946164804F080
:101FF800D7FC0346002B01D0FFF788FD60237B60E8
:102008000023BB600023FB6000237B613B1D04228F
:1020180019460D4804F034F80346002B01D0FFF7A9
:1020280075FD3B1D0C221946074804F029F80346A4
:10203800002B01D0FFF76AFD034800F0F5F900BF57
:102048003837BD4680BD00BF4409002080B58EB03A
:1020580000AF07F1280300221A605A609A60DA601C
:1020680007F1200300221A605A603B1D00221A6003
:102078005A609A60DA601A615A619A613C4B3D4A2B
:102088001A603B4B47225A60394B00229A60384B02
:102098006322DA60364B00221A61354B00229A61BE
:1020A800334803F057FA0346002B01D0FFF72EFD03
:1020B8004FF48053BB6207F1280319462C4804F0FB
:1020C800A1F80346002B01D0FFF720FD284803F0B4
:1020D8009DFB0346002B01D0FFF718FD00233B6250
:1020E80000237B6207F120031946214804F058FCBD
:1020F8000346002B01D0FFF709FD60237B60002316
:10210800BB600023FB6000237B613B1D0022194656
:10211800174803F0B5FF0346002B01D0FFF7F6FC84
:102128003B1D04221946124803F0AAFF0346002B60
:1021380001D0FFF7EBFC3B1D082219460C4803F0C1
:102148009FFF0346002B01D0FFF7E0FC3B1D0C224C
:102158001946074803F094FF0346002B01D0FFF708
:10216800D5FC034800F060F900BF3837BD4680BD94
:102178008C0900200004004080B58EB000AF07F144
:10218800280300221A605A609A60DA6007F1200377
:1021980000221A605A603B1D00221A605A609A6039
:1021A800DA601A615A619A613C4B3D4A1A603B4BAE
:1021B80047225A60394B00229A60384B6322DA6012
:1021C800364B00221A61354B00229A61334803F0DE
:1021D800C1F90346002B01D0FFF798FC4FF4805358
:1021E800BB6207F1280319462C4804F00BF8034694
:1021F800002B01D0FFF78AFC284803F007FB0346B1
:10220800002B01D0FFF782FC00233B6200237B6296
:1022180007F120031946214804F0C2FB0346002BAE
:1022280001D0FFF773FC60237B600023BB600023B1
:10223800FB6000237B613B1D00221946174803F011
:102248001FFF0346002B01D0FFF760FC3B1D042253
:102258001946124803F014FF0346002B01D0FFF77C
:1022680055FC3B1D082219460C4803F009FF03469C
:10227800002B01D0FFF74AFC3B1D0C2219460748EA
:1022880003F0FEFE0346002B01D0FFF73FFC034896
:1022980000F0CAF800BF3837BD4680BDD409002019
:1022A8000008004080B586B000AF07F1080300229F
:1022B8001A605A609A60DA603B4600221A605A60D7
:1022C8001D4B1E4A1A601C4B47225A601A4B0022AB
:1022D8009A60194B4CF24F32DA60174B00221A61A0
:1022E800154B00229A61144803F034F90346002B79
:1022F80001D0FFF70BFC4FF48053BB6007F10803D4
:1023080019460D4803F07EFF0346002B01D0FFF766
:10231800FDFB00233B6000237B603B4619460648D3
:1023280004F03EFB0346002B01D0FFF7EFFB00BF94
:102338001837BD4680BD00BF1C0A0020000C0040B5
:1023480080B588B000AF78607B681B68314A9342DB
:102358000CD1314B9B69304A43F4006393612E4B97
:102368009B6903F40063FB61FB694EE07B681B68B3
:10237800B3F1804F0CD1284BDB69274A43F00103A6
:10238800D361254BDB6903F00103BB61BB693CE00A
:102398007B681B68214A93420CD11F4BDB691E4A9C
:1023A80043F00203D3611C4BDB6903F002037B613A
:1023B8007B692AE07B681B68194A93420CD1164B4B
:1023C800DB69154A43F00403D361134BDB6903F05F
:1023D80004033B613B6918E07B681B68114A934220
:1023E80013D10D4BDB690C4A43F00803D3610A4B48
:1023F800DB6903F00803FB60FB6800220E21322032
:1024080001F063FD322001F07CFD00BF2037BD469E
:1024180080BD00BF002C01400010024000040040B5
:1024280000080040000C004080B58CB000AF786018
:1024380007F1180300221A605A609A60DA607B6814
:102448001B68504A934219D14F4B9B694E4A43F03F
:10245800040393614C4B9B6903F004037B617B6924
:102468004FF4E063BB610223FB6102237B6207F147
:1024780018031946454802F0E3F97FE07B681B68BA
:10248800B3F1804F2BD1404B9B693F4A43F008037F
:1024980093613D4B9B6903F008033B613B6940F640
:1024A8000803BB610223FB6102237B6207F1180367
:1024B8001946374802F0C4F9364B5B68BB62BB6A01
:1024C80023F44073BB62BB6A43F0E063BB62BB6A40
:1024D80043F44073BB622F4ABB6A53604EE07B688B
:1024E8001B682D4A93422BD1274B9B69264A43F000
:1024F80010039361244B9B6903F01003FB60FB6896
:102508004FF47073BB610223FB6102237B6207F106
:1025180018031946214802F093F91E4B5B68FB62C9
:10252800FB6A23F44063FB62FB6A43F0E063FB62EF
:10253800FB6A43F44063FB62164AFB6A53601DE082
:102548007B681B68164A934218D10F4B9B690E4A49
:1025580043F0080393610C4B9B6903F00803BB60CD
:10256800BB684FF47073BB610223FB6102237B627B
:1025780007F118031946064802F062F900BF303720
:10258800BD4680BD002C01400010024000080140FB
:10259800000C014000000140000400400010014010
:1025A8000008004080B500AF114B124A1A60104B6A
:1025B8004FF4E1325A600E4B00229A600C4B002215
:1025C800DA600B4B00221A61094B0C225A61084B46
:1025D80000229A61064B0022DA61054804F0AFFA3E
:1025E8000346002B01D0FFF791FA00BF80BD00BF62
:1025F800640A00200050004080B58AB000AF7860BF
:1026080007F1180300221A605A609A60DA607B6842
:102618001B68264A934244D1254BDB69244A43F47C
:102628008013D361224BDB6903F480137B617B69E0
:102638001F4B9B691E4A43F0100393611C4B9B6917
:1026480003F010033B613B69194B9B69184A43F03F
:1026580020039361164B9B6903F02003FB60FB6822
:102668004FF48053BB610223FB6103237B6207F1B4
:10267800180319460F4802F0E3F80423BB6100234E
:10268800FB6101233B6207F1180319460A4802F06F
:10269800D7F800220221352001F017FC352001F07F
:1026A80030FC00BF2837BD4680BD00BF0050004049
:1026B800001002400010014000140140FFF788FBA1
:1026C8000B480C490C4A002302E0D458C450043388
:1026D800C4188C42F9D3094A094C002301E013605D
:1026E8000432A242FBD309F045F9FFF793F970478A
:1026F800000000204008002010E8000840080020E2
:10270800140E0020FEE7000080B500AF084B1B68E0
:10271800074A43F010031360032001F0CBFB0F209E
:1027280000F008F8FFF7F8F90023184680BD00BF4D
:102738000020024080B582B000AF7860124B1A6862
:10274800124B1B7819464FF47A73B3FBF1F3B2FBC3
:10275800F3F3184601F0E3FB0346002B01D00123F5
:102768000EE07B680F2B0AD8002279684FF0FF3003
:1027780001F0ABFB064A7B681360002300E00123ED
:1027880018460837BD4680BD00000020080000201C
:102798000400002080B400AF054B1B781A46054B97
:1027A8001B681344034A136000BFBD4680BC7047D2
:1027B80008000020AC0A002080B400AF024B1B6860
:1027C8001846BD4680BC7047AC0A002080B586B06C
:1027D80000AF78600023FB7500233B610023BB60DA
:1027E8000023FB607B68002B01D10123CEE07B68CE
:1027F8009B68002B7B689B6A002B09D17B680022B1
:10280800DA627B68002283F824207868FEF712FFDA
:10281800786800F053FB0346FB757B689B6A03F0FE
:102828001003002B40F0A980FB7D002B40F0A58011
:102838007B689B6A23F4885323F0020343F0020267
:102848007B689A627B685A687B681B6851498B422F
:102858000AD17B68DB69B3F5402F02D07B68DB695E
:1028680004E04FF4002301E07B68DB691A437B68CE
:102878001B7B5B001343BA681343BB607B689B6890
:10288800B3F5807F03D07B689B68012B02D14FF49E
:10289800807300E000233A6913433B617B681B7D2A
:1028A800012B19D17B681B7B002B09D17B689B69A5
:1028B800013B5A033B69134343F400633B610BE05C
:1028C8007B689B6A43F020027B689A627B68DB6ABC
:1028D80043F001027B68DA627B681B685B6823F45B
:1028E80069417B681B683A690A435A607B681B68C0
:1028F8009A68294B13407A681268B9680B43936049
:102908007B689B68B3F5807F03D07B689B68012B4D
:1029180004D17B681B69013B1B05FB607B681B6856
:10292800DB6A23F470017B681B68FA680A43DA6281
:102938007B681B689A68194B1340BA689A420BD196
:102948007B680022DA627B689B6A23F0030343F00A
:1029580001027B689A6218E07B689B6A23F0120385
:1029680043F010027B689A627B68DB6A43F00102DD
:102978007B68DA620123FB7507E07B689B6A43F09A
:1029880010027B689A620123FB75FB7D1846183795
:10299800BD4680BD003C0140FDF7E1FFFE0E1FFF74
:1029A80080B586B000AFF860B9607A600023FB7527
:1029B800FB681B68644A934204D0FB681B68634A3F
:1029C800934206D1604B5B6803F47023002B40F000
:1029D800B380FB6893F82430012B01D10223AEE0C9
:1029E800FB68012283F82420F86800F00DFA0346FA
:1029F800FB75FB7D002B40F09A80FB689B6A23F4F3
:102A0800706323F0010343F48072FB689A62FB68E9
:102A18001B684E4A934205D14B4B5B6803F4702305
:102A2800002B15D1FB689B6A23F48012FB689A621D
:102A3800FB681B685B6803F48063002B26D0FB6887
:102A48009B6A23F4405343F48052FB689A621DE06A
:102A5800FB689B6A43F48012FB689A62FB681B68F8
:102A6800394A934204D0FB681B68384A93420DD117
:102A7800354B5B6803F48063002B07D0FB689B6AC7
:102A880023F4405343F48052FB689A62FB689B6AC4
:102A980003F48053002B06D0FB68DB6A23F00602A0
:102AA800FB68DA6202E0FB680022DA62FB68002257
:102AB80083F82420FB681B6A254A9A62FB681B6A14
:102AC800244ADA62FB681B6A234A1A63FB681B689C
:102AD8006FF002021A60FB681B689A68FB681B6843
:102AE80042F480729A60FB68186AFB681B684C3372
:102AF8001946BA687B6801F095FAFB681B689B6801
:102B080003F46023B3F5602F08D1FB681B689A684B
:102B1800FB681B6842F4A0029A600FE0FB681B6820
:102B28009A68FB681B6842F480129A6006E0FB68AA
:102B3800002283F8242001E00123FB75FB7D184661
:102B48001837BD4680BD00BF002401400028014061
:102B5800472F0008C32F0008DF2F000880B584B076
:102B680000AF78600023FB737B6893F82430012B57
:102B780001D102233AE07B68012283F82420786897
:102B880000F09CF90346FB73FB7B002B29D17B6883
:102B98001B689A687B681B6822F480729A607B685D
:102BA8001B6A93F82130DBB2022B1AD17B681B6AAF
:102BB800184601F097FA0346FB73FB7B002B0AD1FA
:102BC8007B689B6A23F4885323F0010343F00102D6
:102BD8007B689A6205E07B689B6A43F040027B68E9
:102BE8009A627B68002283F82420FB7B1846103702
:102BF800BD4680BD80B483B000AF786000BF0C379D
:102C0800BD4680BC704780B483B000AF786000BF19
:102C18000C37BD4680BC704780B485B000AF786083
:102C280039600023FB730023BB607B6893F8243072
:102C3800012B01D10223DCE07B68012283F82420E8
:102C48003B685B68062B1CD87B681B68596B3B6824
:102C58005A6813469B001344053B1F2202FA03F3EC
:102C6800DB4319403B6818683B685A6813469B0069
:102C78001344053B00FA03F27B681B680A435A6356
:102C88003CE03B685B680C2B1CD87B681B68196BA5
:102C98003B685A6813469B001344233B1F2202FAE1
:102CA80003F3DB4319403B6818683B685A681346CE
:102CB8009B001344233B00FA03F27B681B680A431A
:102CC8001A631BE07B681B68D96A3B685A6813461D
:102CD8009B001344413B1F2202FA03F3DB431940D4
:102CE8003B6818683B685A6813469B001344413B8D
:102CF80000FA03F27B681B680A43DA623B681B68C8
:102D0800092B1CD97B681B68D9683B681A6813466D
:102D18005B0013441E3B072202FA03F3DB4319400E
:102D28003B6898683B681A6813465B0013441E3B6F
:102D380000FA03F27B681B680A43DA6019E07B68D3
:102D48001B6819693B681A6813465B00134407221D
:102D580002FA03F3DB4319403B6898683B681A683A
:102D680013465B00134400FA03F27B681B680A43AE
:102D78001A613B681B68102B03D03B681B68112B3A
:102D880032D17B681B681D4A934225D17B681B683A
:102D98009B6803F40003002B26D17B681B689A68A4
:102DA8007B681B6842F400029A603B681B68102B22
:102DB8001AD1134B1B68134AA2FB03239A0C134620
:102DC8009B0013445B00BB6002E0BB68013BBB6037
:102DD800BB68002BF9D107E07B689B6A43F02002AF
:102DE8007B689A620123FB737B68002283F82420A6
:102DF800FB7B18461437BD4680BC70470024014051
:102E08000000002083DE1B4380B584B000AF7860EB
:102E18000023FB600023BB607B681B689B6803F092
:102E28000103012B40D07B681B689A687B681B688C
:102E380042F001029A601F4B1B681F4AA2FB032342
:102E48009B0CBB6002E0BB68013BBB60BB68002B0E
:102E5800F9D1FFF7B1FCF8601FE0FFF7ADFC0246BF
:102E6800FB68D31A022B18D97B681B689B6803F090
:102E78000103012B11D07B689B6A43F010027B6829
:102E88009A627B68DB6A43F001027B68DA627B68DE
:102E9800002283F82420012307E07B681B689B68D5
:102EA80003F00103012BD8D1002318461037BD4683
:102EB80080BD00BF0000002083DE1B4380B584B0C6
:102EC80000AF78600023FB607B681B689B6803F099
:102ED8000103012B2ED17B681B689A687B681B68ED
:102EE80022F001029A60FFF767FCF8601BE0FFF729
:102EF80063FC0246FB68D31A022B14D97B681B6853
:102F08009B6803F00103012B0DD17B689B6A43F09A
:102F180010027B689A627B68DB6A43F001027B6877
:102F2800DA62012307E07B681B689B6803F00103F2
:102F3800012BDCD0002318461037BD4680BD80B574
:102F480084B000AF78607B685B6AFB60FB689B6A53
:102F580003F05003002B27D1FB689B6A43F40072EF
:102F6800FB689A62FB681B689B6803F46023B3F5EF
:102F7800602F15D1FB681B7B002B11D1FB689B6A66
:102F880023F48072FB689A62FB689B6A03F480539F
:102F9800002B05D1FB689B6A43F00102FB689A622B
:102FA800F86804F0A7FF04E0FB681B6A1B6B7868ED
:102FB800984700BF1037BD4680BD80B584B000AFCC
:102FC80078607B685B6AFB60F868FFF713FE00BFF8
:102FD8001037BD4680BD80B584B000AF78607B688F
:102FE8005B6AFB60FB689B6A43F04002FB689A627D
:102FF800FB68DB6A43F00402FB68DA62F868FFF7F3
:1030080002FE00BF1037BD4680BD80B584B000AF5A
:1030180078607B68002B01D10123EDE07B6893F891
:103028002030DBB2002B02D17868FEF7D3FB7B6837
:103038001B681A687B681B6842F001021A60FFF778
:10304800BBFBF86012E0FFF7B7FB0246FB68D31A38
:103058000A2B0BD97B685B6A43F400327B685A629F
:103068007B68052283F820200123C5E07B681B6864
:103078005B6803F00103002BE5D07B681B681A68C6
:103088007B681B6822F002021A60FFF795FBF86064
:1030980012E0FFF791FB0246FB68D31A0A2B0BD903
:1030A8007B685B6A43F400327B685A627B6805225E
:1030B80083F8202001239FE07B681B685B6803F08E
:1030C8000203002BE5D17B681B7E012B08D17B68AE
:1030D8001B681A687B681B6842F080021A6007E068
:1030E8007B681B681A687B681B6822F080021A607C
:1030F8007B685B7E012B08D17B681B681A687B683C
:103108001B6842F040021A6007E07B681B681A6877
:103118007B681B6822F040021A607B689B7E012B4B
:1031280008D17B681B681A687B681B6842F020021C
:103138001A6007E07B681B681A687B681B6822F0C6
:1031480020021A607B68DB7E012B08D17B681B6834
:103158001A687B681B6822F010021A6007E07B6817
:103168001B681A687B681B6842F010021A607B684B
:103178001B7F012B08D17B681B681A687B681B685A
:1031880042F008021A6007E07B681B681A687B68CF
:103198001B6822F008021A607B685B7F012B08D14C
:1031A8007B681B681A687B681B6842F004021A6017
:1031B80007E07B681B681A687B681B6822F00402BA
:1031C8001A607B689A687B68DB681A437B681B69AE
:1031D8001A437B685B6942EA03017B685B685A1E95
:1031E8007B681B680A43DA617B6800225A627B6845
:1031F800012283F82020002318461037BD4680BDE1
:1032080080B487B000AF786039607B681B687B61E9
:103218007B6893F82030FB74FB7C012B03D0FB7C8C
:10322800022B40F0AA807B69D3F8003243F00102F8
:103238007B69C3F800223B685B6903F01F03012226
:1032480002FA03F3FB607B69D3F81C22FB68DB43BB
:103258001A407B69C3F81C223B68DB69002B23D129
:103268007B69D3F80C22FB68DB431A407B69C3F8FF
:103278000C223B68DB6819043B685B689BB23A68C0
:10328800526919437B69483243F832103B689B689E
:1032980019043B681B689AB23B685B690A43796901
:1032A8004833DB000B445A603B68DB69012B22D1B1
:1032B8007B69D3F80C22FB681A437B69C3F80C229C
:1032C8003B681B6819043B685B689BB23A685269A3
:1032D80019437B69483243F832103B689B681904EC
:1032E8003B68DB689AB23B685B690A437969483393
:1032F800DB000B445A603B689B69002B09D17B6952
:10330800D3F80422FB68DB431A407B69C3F8042224
:1033180007E07B69D3F80422FB681A437B69C3F88A
:1033280004223B681B69002B09D17B69D3F814225E
:10333800FB68DB431A407B69C3F8142207E07B690A
:10334800D3F81422FB681A437B69C3F814223B683C
:103358001B6A012B07D17B69D3F81C22FB681A432F
:103368007B69C3F81C227B69D3F8003223F0010281
:103378007B69C3F80022002306E07B685B6A43F49C
:1033880080227B685A62012318461C37BD4680BCE0
:10339800704780B584B000AF78607B6893F82030C0
:1033A800DBB2012B2ED17B68022283F820207B68B8
:1033B8001B681A687B681B6822F001021A60FFF715
:1033C800FBF9F86012E0FFF7F7F90246FB68D31A39
:1033D8000A2B0BD97B685B6A43F400327B685A621C
:1033E8007B68052283F82020012312E07B681B6894
:1033F8005B6803F00103002BE5D17B6800225A6269
:10340800002306E07B685B6A43F400227B685A620B
:10341800012318461037BD4680BD80B489B000AF7F
:10342800F860B9607A603B60FB6893F82030FB77FE
:10343800FB681B689B68BB61FB7F012B03D0FB7F8C
:10344800022B40F0AD80BB6903F08063002B0AD1EA
:10345800BB6903F00063002B05D1BB6903F08053FF
:10346800002B00F09580BB691B0E03F003037B6102
:1034780001227B699A403B681A60BB689B68002BF5
:103488000DD1BB681B685A05BB68DB68F968096819
:103498001A437B6918331B010B441A600FE0BB68A1
:1034A8005B68DA00BB689B681A43BB68DB68F9682D
:1034B80009681A437B6918331B010B441A60FB68BF
:1034C8001968BB681A697B6918331B010B440433FC
:1034D8001A60BB681B7D012B11D1FB681A687B69D8
:1034E80018331B01134404331B68FA68116843F44A
:1034F80080727B6918331B010B4404331A607B68A4
:1035080007331B781A067B6806331B781B041A439B
:103518007B6805331B781B0213437A6804321278E0
:103528001046FA68116843EA00027B691B010B44E4
:1035380003F5C6731A607B6803331B781A067B6829
:1035480002331B781B041A437B6801331B781B0268
:1035580013437A6812781046FA68116843EA000241
:103568007B691B010B4403F5C4731A60FB681A6876
:103578007B6918331B0113441B68FA68116843F010
:1035880001027B6918331B010B441A6000230EE00B
:10359800FB685B6A43F40012FB685A62012306E089
:1035A800FB685B6A43F48022FB685A620123184671
:1035B8002437BD4680BC704780B485B000AF7860C2
:1035C8000023FB607B6893F82030FB72FB7A012BA9
:1035D80002D0FB7A022B1DD17B681B689B6803F025
:1035E8008063002B02D0FB680133FB607B681B689B
:1035F8009B6803F00063002B02D0FB680133FB607B
:103608007B681B689B6803F08053002B02D0FB6823
:103618000133FB60FB6818461437BD4680BC704711
:1036280080B487B000AFF860B9607A603B60FB682F
:1036380093F82030FB75FB7D012B03D0FB7D022B1B
:1036480040F00381BB68002B0ED1FB681B68DB6868
:1036580003F00303002B16D1FB685B6A43F40012E6
:10366800FB685A620123F7E0FB681B681B6903F0DB
:103678000303002B07D1FB685B6A43F40012FB6865
:103688005A620123E8E0FB681A68BB681B331B0118
:1036980013441B6803F004027B689A607B689B688C
:1036A800002B0CD1FB681A68BB681B331B01134441
:1036B8001B685B0DC3F30A027B681A600BE0FB68AA
:1036C8001A68BB681B331B0113441B68DB0823F013
:1036D80060427B685A60FB681A68BB681B331B0131
:1036E80013441B6803F002027B68DA60FB681A68FF
:1036F800BB681B331B01134404331B6803F0080326
:10370800002B03D07B6808221A610BE0FB681A685B
:10371800BB681B331B01134404331B6803F00F02FF
:103728007B681A61FB681A68BB681B331B0113446A
:1037380004331B681B0ADAB27B689A61FB681A6853
:10374800BB681B331B01134404331B681B0C9AB260
:103758007B685A61FB681A68BB681B01134403F550
:10376800DC731B68DAB23B681A70FB681A68BB68BE
:103778001B01134403F5DC731B681A0A3B68013309
:10378800D2B21A70FB681A68BB681B01134403F5B0
:10379800DC731B681A0C3B680233D2B21A70FB68E0
:1037A8001A68BB681B01134403F5DC731B681A0E07
:1037B8003B680333D2B21A70FB681A68BB681B01F6
:1037C800134403F5DE731A683B680433D2B21A70E7
:1037D800FB681A68BB681B01134403F5DE731B689A
:1037E8001A0A3B680533D2B21A70FB681A68BB68BC
:1037F8001B01134403F5DE731B681A0C3B68063380
:10380800D2B21A70FB681A68BB681B01134403F52F
:10381800DE731B681A0E3B680733D2B21A70BB6896
:10382800002B08D1FB681B68DA68FB681B6842F04C
:103838002002DA6007E0FB681B681A69FB681B68EE
:1038480042F020021A61002306E0FB685B6A43F439
:103858008022FB685A62012318461C37BD4680BC8B
:10386800704780B485B000AF786039600023FB6092
:103878007B6893F82030FB72FB7A012B02D0FB7A2D
:10388800022B0FD13B68002B06D17B681B68DB68D5
:1038980003F00303FB6005E07B681B681B6903F00A
:1038A8000303FB60FB6818461437BD4680BC7047AD
:1038B80080B485B000AF786039607B6893F82030B9
:1038C800FB73FB7B012B02D0FB7B022B09D17B68AE
:1038D8001B6859697B681B683A680A435A61002368
:1038E80006E07B685B6A43F480227B685A620123A6
:1038F80018461437BD4680BC704780B58AB000AF03
:10390800786000237B627B681B685B693B627B682D
:103918001B685B68FB617B681B689B68BB617B6895
:103928001B68DB687B617B681B681B693B617B6884
:103938001B689B69FB603B6A03F00103002B7CD08A
:10394800BB6903F00103002B23D07B681B680122AD
:103958009A60BB6903F00203002B03D0786800F07B
:1039680083F916E0BB6903F00403002B04D07B6ADB
:1039780043F400637B620CE0BB6903F00803002B8F
:1039880004D07B6A43F480537B6202E0786800F0DD
:1039980086F9BB6903F48073002B24D07B681B680D
:1039A8004FF480729A60BB6903F40073002B03D054
:1039B800786800F062F916E0BB6903F48063002BB5
:1039C80004D07B6A43F400537B620CE0BB6903F4C8
:1039D8000063002B04D07B6A43F480437B6202E0DF
:1039E800786800F065F9BB6903F48033002B24D0B4
:1039F8007B681B684FF480329A60BB6903F400331C
:103A0800002B03D0786800F041F916E0BB6903F495
:103A18008023002B04D07B6A43F400437B620CE0D4
:103A2800BB6903F40023002B04D07B6A43F4803382
:103A38007B6202E0786800F044F93B6A03F008030F
:103A4800002B0CD07B6903F01003002B07D07B6A96
:103A580043F400737B627B681B681022DA603B6A60
:103A680003F00403002B0BD07B6903F00803002B41
:103A780006D07B681B680822DA60786800F02AF9AB
:103A88003B6A03F00203002B09D07B681B68DB68E4
:103A980003F00303002B02D0786804F000FC3B6AB3
:103AA80003F04003002B0CD03B6903F01003002BFC
:103AB80007D07B6A43F480637B627B681B681022B3
:103AC8001A613B6A03F02003002B0BD03B6903F01B
:103AD8000803002B06D07B681B6808221A617868E7
:103AE80000F001F93B6A03F01003002B09D07B6852
:103AF8001B681B6903F00303002B02D0786804F0ED
:103B0800F3FB3B6A03F40033002B0BD0FB6903F093
:103B18001003002B06D07B681B6810225A60786857
:103B280000F0EAF83B6A03F48033002B0BD0FB6902
:103B380003F00803002B06D07B681B6808225A6034
:103B4800786800F0E2F83B6A03F40043002B7BD06E
:103B5800FB6903F00403002B72D03B6A03F4807303
:103B6800002B08D0FB6803F00103002B03D07B6A0D
:103B780043F001037B623B6A03F40073002B08D017
:103B8800FB6803F00203002B03D07B6A43F00203B7
:103B98007B623B6A03F48063002B08D0FB6803F068
:103BA8000403002B03D07B6A43F004037B623B6A67
:103BB80003F40063002B43D0FB6803F07003002B71
:103BC8003ED0FB6803F07003602B2BD0602B2ED8FF
:103BD800502B22D0502B2AD8402B19D0402B26D836
:103BE800302B10D0302B22D8102B02D0202B05D010
:103BF8001DE07B6A43F008037B6219E07B6A43F0AF
:103C080010037B6214E07B6A43F020037B620FE0C1
:103C18007B6A43F040037B620AE07B6A43F08003DF
:103C28007B6205E07B6A43F480737B6200E000BF3F
:103C38007B681B689A697B681B6822F070029A612E
:103C48007B681B6804225A607B6A002B08D07B685B
:103C58005A6A7B6A1A437B685A62786804F069FB7F
:103C680000BF2837BD4680BD80B483B000AF786000
:103C780000BF0C37BD4680BC704780B483B000AF2E
:103C8800786000BF0C37BD4680BC704780B483B0F5
:103C980000AF786000BF0C37BD4680BC704780B469
:103CA80083B000AF786000BF0C37BD4680BC70475A
:103CB80080B483B000AF786000BF0C37BD4680BCCD
:103CC800704780B483B000AF786000BF0C37BD4642
:103CD80080BC704780B483B000AF786000BF0C37F9
:103CE800BD4680BC704780B483B000AF786000BF29
:103CF8000C37BD4680BC704780B483B000AF786095
:103D080000BF0C37BD4680BC704780B483B000AF9D
:103D1800786000BF0C37BD4680BC704780B485B062
:103D280000AF78607B6803F00703FB600C4BDB682F
:103D3800BB60BA684FF6FF031340BB60FB681A020A
:103D4800BB68134343F0BF6343F40033BB60044ACA
:103D5800BB68D36000BF1437BD4680BC704700BF46
:103D680000ED00E080B400AF044BDB681B0A03F0F1
:103D780007031846BD4680BC704700BF00ED00E051
:103D880080B483B000AF0346FB7197F90730002B6E
:103D98000BDBFB7903F01F02064997F907305B0933
:103DA800012000FA02F241F8232000BF0C37BD467B
:103DB80080BC704700E100E080B483B000AF0346E8
:103DC8003960FB7197F90730002B0ADB3B68DAB2E0
:103DD8000C4997F907301201D2B20B4483F800233B
:103DE8000AE03B68DAB20849FB7903F00F03043BA9
:103DF8001201D2B20B441A7600BF0C37BD4680BC04
:103E0800704700BF00E100E000ED00E080B489B039
:103E180000AFF860B9607A60FB6803F00703FB61E4
:103E2800FB69C3F10703042B28BF0423BB61FB69AB
:103E38000433062B02D9FB69033B00E000237B61B6
:103E48004FF0FF32BB6902FA03F3DA43BB681A404A
:103E58007B699A404FF0FF317B6901FA03F3D9433C
:103E68007B680B40134318462437BD4680BC704717
:103E780080B582B000AF78607B68013BB3F1807F8A
:103E880001D301230FE00A4A7B68013B53600F21ED
:103E98004FF0FF30FFF790FF054B00229A60044B6C
:103EA80007221A60002318460837BD4680BD00BFA8
:103EB80010E000E080B582B000AF78607868FFF766
:103EC8002DFF00BF0837BD4680BD80B586B000AF66
:103ED8000346B9607A60FB7300237B61FFF742FFFA
:103EE80078617A68B9687869FFF790FF024697F9B0
:103EF8000F3011461846FFF75FFF00BF1837BD4661
:103F080080BD80B582B000AF0346FB7197F90730DA
:103F18001846FFF735FF00BF0837BD4680BD80B59E
:103F280082B000AF78607868FFF7A2FF03461846B2
:103F38000837BD4680BD000080B485B000AF78600A
:103F48000023FB607B68002B01D1012359E07B68CB
:103F58001B681A462D4B9A420FD87B681B681A4675
:103F68002B4B13442B4AA2FB03231B099A007B68A3
:103F78001A647B68284ADA630EE07B681B681A4675
:103F8800264B1344234AA2FB03231B099A007B6890
:103F98001A647B68224ADA637B68022283F821204C
:103FA8007B681B681B68FB60FB6823F47F5323F066
:103FB8003003FB607B685A687B689B681A437B68A0
:103FC800DB681A437B681B691A437B685B691A4381
:103FD8007B689B691A437B68DB691343FA68134360
:103FE800FB607B681B68FA681A607B6800229A632A
:103FF8007B68012283F821207B68002283F8202037
:10400800002318461437BD4680BC70470704024099
:10401800F8FFFDBFCDCCCCCC00000240F8FBFDBFC3
:104028000004024080B586B000AFF860B9607A60DD
:104038003B600023FB75FB6893F82030012B01D10E
:1040480002234BE0FB68012283F82020FB6893F8E9
:104058002130DBB2012B3AD1FB68022283F8212000
:10406800FB6800229A63FB681B681A68FB681B6878
:1040780022F001021A603B687A68B968F86800F0B3
:10408800B1FBFB68DB6A002B08D0FB681B681A6869
:10409800FB681B6842F00E021A600FE0FB681B68A1
:1040A8001A68FB681B6822F004021A60FB681B6828
:1040B8001A68FB681B6842F00A021A60FB681B68F2
:1040C8001A68FB681B6842F001021A6005E0FB6889
:1040D800002283F820200223FB75FB7D1846183741
:1040E800BD4680BD80B485B000AF78600023FB7307
:1040F8007B6893F82130DBB2022B08D07B6804225E
:104108009A637B68002283F82020012320E07B68E3
:104118001B681A687B681B6822F00E021A607B68AD
:104128001B681A687B681B6822F001021A607B68AA
:104138001A6C7B68DB6B012101FA02F25A607B681A
:10414800012283F821207B68002283F82020FB7B52
:1041580018461437BD4680BC7047000080B584B04F
:1041680000AF78600023FB737B6893F82130DBB2E3
:10417800022B05D07B6804229A630123FB73D6E0E7
:104188007B681B681A687B681B6822F00E021A603D
:104198007B681B681A687B681B6822F001021A603A
:1041A8007B681B681A46644B9A4258D97B681B681F
:1041B800624A93424FD07B681B68614A934248D059
:1041C8007B681B685F4A934240D07B681B685E4AE5
:1041D800934238D07B681B685C4A934230D07B6836
:1041E8001B685B4A934228D07B681B68524A9342FB
:1041F80020D07B681B68574A934219D07B681B689C
:10420800554A934212D07B681B68544A93420AD09D
:104218007B681B68524A934202D14FF480531BE0DB
:104228004FF4803318E04FF4807315E0102313E047
:10423800012311E04FF080730EE04FF480130BE080
:104248004FF4803308E04FF4805305E04FF4807357
:1042580002E0102300E00123424A536057E07B68E4
:104268001B68364A93424FD07B681B68344A934296
:1042780048D07B681B68334A934240D07B681B68F0
:10428800314A934238D07B681B68304A934230D019
:104298007B681B682E4A934228D07B681B68264A95
:1042A800934220D07B681B682A4A934219D07B68C6
:1042B8001B68294A934212D07B681B68274A93429D
:1042C8000AD07B681B68264A934202D14FF4805378
:1042D8001BE04FF4803318E04FF4807315E010238F
:1042E80013E0012311E04FF080730EE04FF48013C8
:1042F8000BE04FF4803308E04FF4805305E04FF4AF
:10430800807302E0102300E00123174A53607B68A2
:10431800012283F821207B68002283F820207B6813
:104328005B6B002B03D07B685B6B78689847FB7BE3
:1043380018461037BD4680BD800002400800024084
:104348001C00024030000240440002405800024075
:104358006C000240080402401C0402403004024081
:1043680044040240000402400000024080B584B0CA
:1043780000AF78607B68DB6B1B68FB607B681B6841
:104388001B68BB607B681B6C04229A40FB68134067
:10439800002B00F0F180BB6803F00403002B00F051
:1043A800EB807B681B681B6803F02003002B07D198
:1043B8007B681B681A687B681B6822F004021A6015
:1043C8007B681B681A465F4B9A4258D97B681B6802
:1043D8005D4A93424FD07B681B685C4A934248D041
:1043E8007B681B685A4A934240D07B681B68594ACD
:1043F800934238D07B681B68574A934230D07B6819
:104408001B68564A934228D07B681B684D4A9342E2
:1044180020D07B681B68524A934219D07B681B687E
:10442800504A934212D07B681B684F4A93420AD085
:104438007B681B684D4A934202D14FF480431BE0CE
:104448004FF4802318E04FF4806315E0402313E015
:10445800042311E04FF080630EE04FF480030BE07B
:104468004FF4802308E04FF4804305E04FF4806365
:1044780002E0402300E004233D4A536057E07B6894
:104488001B68314A93424FD07B681B682F4A93427E
:1044980048D07B681B682E4A934240D07B681B68D3
:1044A8002C4A934238D07B681B682B4A934230D001
:1044B8007B681B68294A934228D07B681B68214A7D
:1044C800934220D07B681B68254A934219D07B68A9
:1044D8001B68244A934212D07B681B68224A934285
:1044E8000AD07B681B68214A934202D14FF480436B
:1044F8001BE04FF4802318E04FF4806315E040235D
:1045080013E0042311E04FF080630EE04FF48003C2
:104518000BE04FF4802308E04FF4804305E04FF4AC
:10452800806302E0402300E00423124A53607B6862
:10453800DB6A002B00F036817B68DB6A7868984775
:1045480030E100BF80000240080002401C00024029
:104558003000024044000240580002406C00024013
:10456800080402401C040240300402404404024093
:1045780000040240000002407B681B6C02229A4043
:10458800FB681340002B00F0DD80BB6803F00203DA
:10459800002B00F0D7807B681B681B6803F02003A2
:1045A800002B0BD17B681B681A687B681B6822F09C
:1045B8000A021A607B68012283F821207B681B6845
:1045C8001A467B4B9A4258D97B681B68794A9342B2
:1045D8004FD07B681B68784A934248D07B681B6839
:1045E800764A934240D07B681B68754A934238D01C
:1045F8007B681B68734A934230D07B681B68724A99
:10460800934228D07B681B68694A934220D07B6814
:104618001B686E4A934219D07B681B686C4A9342A8
:1046280012D07B681B686B4A93420AD07B681B6870
:10463800694A934202D14FF400531BE04FF4003310
:1046480018E04FF4007315E0202313E0022311E073
:104658004FF000730EE04FF400130BE04FF40033FB
:1046680008E04FF4005305E04FF4007302E0202304
:1046780000E00223594A536057E07B681B684D4AA3
:1046880093424FD07B681B684B4A934248D07B6863
:104698001B684A4A934240D07B681B68484A934249
:1046A80038D07B681B68474A934230D07B681B68C8
:1046B800454A934228D07B681B683D4A934220D0E4
:1046C8007B681B68414A934219D07B681B68404A43
:1046D800934212D07B681B683E4A93420AD07B689B
:1046E8001B683D4A934202D14FF400531BE04FF43C
:1046F800003318E04FF4007315E0202313E0022381
:1047080011E04FF000730EE04FF400130BE04FF48C
:10471800003308E04FF4005305E04FF4007302E063
:10472800202300E002232E4A53607B68002283F88E
:1047380020207B689B6A002B34D07B689B6A786852
:1047480098472FE07B681B6C08229A40FB6813404F
:10475800002B28D0BB6803F00803002B23D07B680C
:104768001B681A687B681B6822F00E021A607B6857
:104778001A6C7B68DB6B012101FA02F25A607B68D4
:1047880001229A637B68012283F821207B6800223A
:1047980083F820207B681B6B002B04D07B681B6B85
:1047A8007868984700BF00BF1037BD4680BD00BF7E
:1047B80080000240080002401C0002403000024015
:1047C80044000240580002406C00024008040240C5
:1047D8001C04024030040240440402400004024029
:1047E8000000024080B485B000AFF860B9607A601C
:1047F8003B60FB681A6CFB68DB6B012101FA02F273
:104808005A60FB681B683A685A60FB685B68102B43
:1048180008D1FB681B687A689A60FB681B68BA68ED
:10482800DA6007E0FB681B68BA689A60FB681B6877
:104838007A68DA6000BF1437BD4680BC7047000054
:1048480080B48BB000AF7860396000237B620023AE
:104858003B6279E101227B6A02FA03F3FB613B6860
:104868001B68FA691340BB61BA69FB699A4240F058
:1048780068813B685B68964A93425ED0944A93424B
:1048880075D8944A934258D0924A93426FD8924A24
:10489800934252D0904A934269D8904A93424CD05E
:1048A8008E4A934263D88E4A934246D08C4A9342AA
:1048B8005DD8122B2AD8122B59D801A252F823F00E
:1048C800434900081D4900082F490008714900089C
:1048D80077490008774900087749000877490008B0
:1048E80077490008774900087749000877490008A0
:1048F8007749000877490008774900087749000890
:10490800774900082549000839490008754A934243
:1049180013D02CE03B68DB683B6229E03B68DB682E
:1049280004333B6224E03B68DB6808333B621FE0EA
:104938003B68DB680C333B621AE03B689B68002BE2
:1049480002D104233B6213E03B689B68012B05D12D
:1049580008233B627B68FA691A6109E008233B6215
:104968007B68FA695A6103E000233B6200E000BFFC
:10497800BB69FF2B01D87B6801E07B6804337B614E
:10498800BB69FF2B02D87B6A9B0002E07B6A083B6D
:104998009B003B617B691A680F213B6901FA03F3AD
:1049A800DB431A40396A3B6901FA03F31A437B690E
:1049B8001A603B685B6803F08053002B00F0C180ED
:1049C800494B9B69484A43F001039361464B9B69F5
:1049D80003F00103BB60BB68444A7B6A9B0802334F
:1049E80052F82330FB607B6A03F003039B000F221D
:1049F80002FA03F3DB43FA681340FB607B683C4A26
:104A080093421FD07B683B4A934219D07B683A4A4D
:104A1800934213D07B68394A93420DD07B68384A59
:104A2800934207D07B68374A934201D105230AE0B5
:104A3800062308E0042306E0032304E0022302E03F
:104A4800012300E000237A6A02F0030292009340F7
:104A5800FA681343FB6025497B6A9B080233FA68AE
:104A680041F823203B685B6803F48013002B06D0D1
:104A7800254B9A682449BB6913438B6006E0224B97
:104A88009A68BB69DB43204913408B603B685B68CD
:104A980003F40013002B06D01B4BDA681A49BB69D4
:104AA8001343CB6006E0184BDA68BB69DB43164951
:104AB8001340CB603B685B6803F40033002B25D0C0
:104AC800114B5A681049BB6913434B6025E000BF7E
:104AD80000003210000031100000221000002110E8
:104AE80000001210000011100010024000000140E8
:104AF80000080140000C0140001001400014014072
:104B080000180140001C014000040140154B5A6880
:104B1800BB69DB43134913404B603B685B6803F494
:104B28008033002B06D00F4B1A680E49BB6913431C
:104B38000B6006E00B4B1A68BB69DB43094913405D
:104B48000B607B6A01337B623B681A687B6A22FAD6
:104B580003F3002B7FF47EAE00BF00BF2C37BD46A9
:104B680080BC70470004014080B485B000AF786015
:104B78000B467B807B689A687B881340002B02D0A9
:104B88000123FB7301E00023FB73FB7B18461437FA
:104B9800BD4680BC704780B483B000AF78600B46D8
:104BA8007B8013467B707B78002B03D07A887B68E8
:104BB8001A6103E07B881A047B681A6100BF0C370E
:104BC800BD4680BC7047000080B586B000AF7860F5
:104BD8007B68002B01D1012372E27B681B6803F01C
:104BE8000103002B00F08780924B5B6803F00C03F5
:104BF800042B0CD08F4B5B6803F00C03082B12D1ED
:104C08008C4B5B6803F48033B3F5803F0BD1894B41
:104C18001B6803F40033002B6CD07B685B68002BA7
:104C280068D101234CE27B685B68B3F5803F06D10D
:104C3800804B1B687F4A43F4803313602EE07B6807
:104C48005B68002B0CD17B4B1B687A4A23F48033BA
:104C58001360784B1B68774A23F4802313601DE0A8
:104C68007B685B68B3F5A02F0CD1724B1B68714A47
:104C780043F4802313606F4B1B686E4A43F4803300
:104C880013600BE06B4B1B686A4A23F48033136094
:104C9800684B1B68674A23F4802313607B685B6852
:104CA800002B13D0FDF788FD386108E0FDF784FD7F
:104CB80002463B69D31A642B01D9032300E25D4BFA
:104CC8001B6803F40033002BF0D014E0FDF774FDEB
:104CD800386108E0FDF770FD02463B69D31A642B82
:104CE80001D90323ECE1534B1B6803F40033002B79
:104CF800F0D100E000BF7B681B6803F00203002BC3
:104D080063D04C4B5B6803F00C03002B0BD0494B72
:104D18005B6803F00C03082B1CD1464B5B6803F45B
:104D28008033002B16D1434B1B6803F00203002B82
:104D380005D07B681B69012B01D00123C0E13D4BE5
:104D48001B6823F0F8027B685B69DB003949134371
:104D58000B603AE07B681B69002B20D0364B0122A0
:104D68001A60FDF729FD386108E0FDF725FD0246C8
:104D78003B69D31A022B01D90323A1E12D4B1B68F0
:104D880003F00203002BF0D02A4B1B6823F0F80233
:104D98007B685B69DB00274913430B6015E0264BF2
:104DA80000221A60FDF708FD386108E0FDF704FDF0
:104DB80002463B69D31A022B01D9032380E11D4B1C
:104DC8001B6803F00203002BF0D17B681B6803F01B
:104DD8000803002B3AD07B689B69002B19D0174B2E
:104DE80001221A60FDF7E8FC386108E0FDF7E4FCF1
:104DF80002463B69D31A022B01D9032360E10D4B0C
:104E08005B6A03F00203002BF0D0012000F0CEFA19
:104E18001CE00A4B00221A60FDF7CEFC38610FE057
:104E2800FDF7CAFC02463B69D31A022B08D90323B3
:104E380046E100BF001002400000424280044242A6
:104E4800924B5B6A03F00203002BE9D17B681B6875
:104E580003F00403002B00F0A6800023FB758B4BA6
:104E6800DB6903F08053002B0DD1884BDB69874A3F
:104E780043F08053D361854BDB6903F08053BB60FB
:104E8800BB680123FB75824B1B6803F48073002BFE
:104E980018D17F4B1B687E4A43F480731360FDF77B
:104EA8008BFC386108E0FDF787FC02463B69D31AA2
:104EB800642B01D9032303E1754B1B6803F480734A
:104EC800002BF0D07B68DB68012B06D16F4B1B6A87
:104ED8006E4A43F0010313622DE07B68DB68002B08
:104EE8000CD16A4B1B6A694A23F001031362674BB2
:104EF8001B6A664A23F0040313621CE07B68DB68C4
:104F0800052B0CD1614B1B6A604A43F00403136202
:104F18005E4B1B6A5D4A43F0010313620BE05B4B77
:104F28001B6A5A4A23F001031362584B1B6A574AFB
:104F380023F0040313627B68DB68002B15D0FDF7B0
:104F48003BFC38610AE0FDF737FC02463B69D31A9F
:104F580041F28832934201D90323B1E04B4B1B6ADB
:104F680003F00203002BEED014E0FDF725FC3861B6
:104F78000AE0FDF721FC02463B69D31A41F2883268
:104F8800934201D903239BE0404B1B6A03F00203C1
:104F9800002BEED1FB7D012B05D13C4BDB693B4A55
:104FA80023F08053D3617B68DB69002B00F0878096
:104FB800364B5B6803F00C03082B61D07B68DB6918
:104FC800022B46D1334B00221A60FDF7F5FB3861FE
:104FD80008E0FDF7F1FB02463B69D31A022B01D921
:104FE80003236DE0294B1B6803F00073002BF0D1FD
:104FF8007B681B6AB3F5803F08D1244B5B6823F4B8
:1050080000327B689B68214913434B601F4B5B68E8
:1050180023F474127B68196A7B685B6A0B431B492B
:1050280013434B601B4B01221A60FDF7C5FB386127
:1050380008E0FDF7C1FB02463B69D31A022B01D9F0
:1050480003233DE0114B1B6803F00073002BF0D0E5
:1050580035E0104B00221A60FDF7AEFB386108E01E
:10506800FDF7AAFB02463B69D31A022B01D9032399
:1050780026E0064B1B6803F00073002BF0D11EE0FE
:105088007B68DB69012B07D1012319E0001002407E
:1050980000700040600042420B4B5B68FB60FB689D
:1050A80003F480327B681B6A9A4206D1FB6803F4DA
:1050B80070127B685B6A9A4201D0012300E00023EA
:1050C80018461837BD4680BD0010024080B584B030
:1050D80000AF786039607B68002B01D10123D0E0F4
:1050E8006A4B1B6803F007033A689A4210D9674B6A
:1050F8001B6823F0070265493B6813430B60634B49
:105108001B6803F007033A689A4201D00123B8E00C
:105118007B681B6803F00203002B20D07B681B68A8
:1051280003F00403002B05D0594B5B68584A43F43D
:10513800E06353607B681B6803F00803002B05D00D
:10514800534B5B68524A43F460535360504B5B685F
:1051580023F0F0027B689B684D4913434B607B68E2
:105168001B6803F00103002B40D07B685B68012BB0
:1051780007D1474B1B6803F40033002B15D10123DB
:105188007FE07B685B68022B07D1414B1B6803F00B
:105198000073002B09D1012373E03D4B1B6803F01A
:1051A8000203002B01D101236BE0394B5B6823F02C
:1051B80003027B685B68364913434B60FDF7FCFAD2
:1051C800F8600AE0FDF7F8FA0246FB68D31A41F2E4
:1051D8008832934201D9032353E02D4B5B6803F0D7
:1051E8000C027B685B689B009A42EBD1274B1B68DB
:1051F80003F007033A689A4210D2244B1B6823F045
:10520800070222493B6813430B60204B1B6803F0DD
:1052180007033A689A4201D0012332E07B681B6891
:1052280003F00403002B08D0194B5B6823F4E062F9
:105238007B68DB68164913434B607B681B6803F087
:105248000803002B09D0124B5B6823F460527B687B
:105258001B69DB000E4913434B6000F021F802463E
:105268000B4B5B681B0903F00F030A49CB5C22FA5E
:1052780003F3094A1360094B1B681846FDF75AFAED
:10528800002318461037BD4680BD00BF00200240ED
:10529800001002400CE40008000000200400002078
:1052A80080B487B000AF0023FB600023BB600023FD
:1052B8007B6100237B6000233B611E4B5B68FB60C6
:1052C800FB6803F00C03042B02D0082B03D027E063
:1052D800194B3B6127E0FB689B0C03F00F03174A4F
:1052E800D35C7B60FB6803F48033002B10D0114B38
:1052F8005B685B0C03F00103114AD35CBB607B68FD
:105308000D4A03FB02F2BB68B2FBF3F37B6104E0D6
:105318007B680C4A02FB03F37B617B693B6102E01B
:10532800054B3B6100BF3B6918461C37BD4680BC36
:10533800704700BF0010024000127A0024E4000801
:1053480034E4000800093D0080B400AF024B1B683C
:105358001846BD4680BC70470000002080B500AFED
:10536800FFF7F2FF0246054B5B681B0A03F00703D1
:105378000349CB5C22FA03F3184680BD00100240B3
:105388001CE4000880B500AFFFF7DEFF0246054BBE
:105398005B68DB0A03F007030349CB5C22FA03F3DB
:1053A800184680BD001002401CE4000880B485B097
:1053B80000AF78600A4B1B680A4AA2FB03235B0A0A
:1053C8007A6802FB03F3FB6000BFFB685A1EFA60B1
:1053D800002BF9D100BF00BF1437BD4680BC704711
:1053E80000000020D34D621080B586B000AF786011
:1053F80000233B610023FB607B681B6803F001030B
:10540800002B7DD00023FB754F4BDB6903F08053E5
:10541800002B0DD14C4BDB694B4A43F08053D361D1
:10542800494BDB6903F08053BB60BB680123FB7504
:10543800464B1B6803F48073002B18D1434B1B6841
:10544800424A43F480731360FDF7B6F9386108E007
:10545800FDF7B2F902463B69D31A642B01D903233D
:105468006DE03A4B1B6803F48073002BF0D0364B89
:105478001B6A03F44073FB60FB68002B2ED07B682B
:105488005B6803F44073FA689A4227D02E4B1B6A74
:1054980023F44073FB602E4B01221A602C4B002230
:1054A8001A60294AFB681362FB6803F00103002BAA
:1054B80014D0FDF781F938610AE0FDF77DF902465D
:1054C8003B69D31A41F28832934201D9032336E06B
:1054D8001D4B1B6A03F00203002BEED01A4B1B6A0C
:1054E80023F440727B685B68174913430B62FB7DAA
:1054F800012B05D1144BDB69134A23F08053D36188
:105508007B681B6803F00203002B08D00E4B5B6816
:1055180023F440427B689B680B4913434B607B68CC
:105528001B6803F01003002B08D0074B5B6823F4BB
:1055380080027B685B69044913434B60002318466B
:105548001837BD4680BD00BF001002400070004003
:105558004004424280B582B000AF78607B68002B7F
:1055680001D1012341E07B6893F83D30DBB2002B89
:1055780006D17B68002283F83C207868FCF7E0FEBF
:105588007B68022283F83D207B681A687B680433B5
:105598001946104600F018FF7B68012283F8462060
:1055A8007B68012283F83E207B68012283F83F2034
:1055B8007B68012283F840207B68012283F8412020
:1055C8007B68012283F842207B68012283F843200C
:1055D8007B68012283F844207B68012283F84520F8
:1055E8007B68012283F83D20002318460837BD4612
:1055F80080BD000080B485B000AF78607B6893F808
:105608003D30DBB2012B01D001233CE07B68022254
:1056180083F83D207B681B681D4A934218D07B683D
:105628001B681C4A934213D07B681B68B3F1804FF8
:105638000ED07B681B68184A934209D07B681B68A8
:10564800164A934204D07B681B68154A934211D1CD
:105658007B681B689B6803F00703FB60FB68062BED
:1056680010D07B681B681A687B681B6842F00102CF
:105678001A6007E07B681B681A687B681B6842F041
:1056880001021A60002318461437BD4680BC7047D3
:10569800002C014000340140000400400008004094
:1056A800000C004080B483B000AF78607B681B6852
:1056B8001A6A41F211131340002B0FD17B681B6843
:1056C8001A6A40F244431340002B07D17B681B68D9
:1056D8001A687B681B6822F001021A607B68012245
:1056E80083F83D20002318460C37BD4680BC704720
:1056F80080B485B000AF78607B6893F83D30DBB24A
:10570800012B01D0012344E07B68022283F83D206D
:105718007B681B68DA687B681B6842F00102DA6004
:105728007B681B681D4A934218D07B681B681C4A1B
:10573800934213D07B681B68B3F1804F0ED07B680F
:105748001B68184A934209D07B681B68164A934223
:1057580004D07B681B68154A934211D17B681B688B
:105768009B6803F00703FB60FB68062B10D07B687F
:105778001B681A687B681B6842F001021A6007E020
:105788007B681B681A687B681B6842F001021A6014
:10579800002318461437BD4680BC7047002C0140D2
:1057A800003401400004004000080040000C0040A4
:1057B80080B483B000AF78607B681B68DA687B6868
:1057C8001B6822F00102DA607B681B681A6A41F2E2
:1057D80011131340002B0FD17B681B681A6A40F223
:1057E80044431340002B07D17B681B681A687B6809
:1057F8001B6822F001021A607B68012283F83D20B1
:10580800002318460C37BD4680BC704780B582B06F
:1058180000AF78607B68002B01D1012341E07B68F1
:1058280093F83D30DBB2002B06D17B68002283F869
:105838003C20786800F039F87B68022283F83D2024
:105848007B681A687B6804331946104600F0BCFD73
:105858007B68012283F846207B68012283F83E207A
:105868007B68012283F83F207B68012283F840206F
:105878007B68012283F841207B68012283F842205B
:105888007B68012283F843207B68012283F8442047
:105898007B68012283F845207B68012283F83D203C
:1058A800002318460837BD4680BD80B483B000AFDA
:1058B800786000BF0C37BD4680BC704780B584B0A7
:1058C80000AF786039603B68002B09D17B6893F89A
:1058D8003E30DBB2012B14BF01230023DBB222E0F0
:1058E8003B68042B09D17B6893F83F30DBB2012B6E
:1058F80014BF01230023DBB215E03B68082B09D154
:105908007B6893F84030DBB2012B14BF01230023DE
:10591800DBB208E07B6893F84130DBB2012B14BF9F
:1059280001230023DBB2002B01D0012372E03B6886
:10593800002B04D17B68022283F83E2013E03B68E9
:10594800042B04D17B68022283F83F200BE03B68DC
:10595800082B04D17B68022283F8402003E07B688F
:10596800022283F841207B681B68012239681846A7
:1059780000F0F2FF7B681B68284A934204D07B68DA
:105988001B68274A934201D1012300E00023002B22
:1059980007D07B681B685A6C7B681B6842F400421E
:1059A8005A647B681B681D4A934218D07B681B6841
:1059B8001B4A934213D07B681B68B3F1804F0ED00B
:1059C8007B681B68174A934209D07B681B68164A94
:1059D800934204D07B681B68144A934211D17B68B8
:1059E8001B689B6803F00703FB60FB68062B10D05D
:1059F8007B681B681A687B681B6842F001021A60A2
:105A080007E07B681B681A687B681B6842F0010224
:105A18001A60002318461037BD4680BD002C01408F
:105A2800003401400004004000080040000C004021
:105A380080B582B000AF786039607B681B6800224F
:105A48003968184600F088FF7B681B682E4A934225
:105A580004D07B681B682D4A934201D1012300E0E2
:105A68000023002B17D07B681B681A6A41F21113B8
:105A78001340002B0FD17B681B681A6A40F244431D
:105A88001340002B07D17B681B685A6C7B681B6826
:105A980022F400425A647B681B681A6A41F21113A7
:105AA8001340002B0FD17B681B681A6A40F24443ED
:105AB8001340002B07D17B681B681A687B681B683A
:105AC80022F001021A603B68002B04D17B68012296
